:02000000502886 :0E0006008312031343088A0042088200080098 :1000140003208A110A128000840AC20A0319C30A3F :08002400F003031D0A28080087 :10002C001A3083120313FC00F830FD00FD0B1C2862 :10003C00FC0B1C280000061A2A28861A2A28061BE4 :10004C002A28861B2A282B2821284408F00045083A :10005C00F100F00DF10D70107008203E840010308E :10006C00000785008230FC00DD30FD00FD0B3C28D4 :0C007C00FC0B3C280000000005120800EE :100088000730831203139F0083168501F030860022 :080098008312850186010800B6 :1000A000013083120313A000A1010230A200A301BA :1000B0000330A400A5010A30A600A7010430A8005F :1000C000A9010530AA00AB010630AC00AD010B3030 :1000D000AE00AF010730B000B1010830B200B3018B :1000E0000930B400B5010C30B600B7010E30B800CD :1000F000B901BA01BB010D30BC00BD010F30BE001B :10010000BF01C001C10144200614061E8D28C00194 :10011000C101C401C5011620B028861E99280130EE :10012000C0000030C1000130C4000030C5001620FE :10013000B028061FA5280230C0000030C1000230E0 :10014000C4000030C5001620B028861FB028033038 :10015000C0000030C1000330C4000030C5001620CC :1001600006108614061EBE280430C0000030C100F0 :100170000430C4000030C5001620E128861ECA28BD :100180000530C0000030C1000530C4000030C5009B :100190001620E128061FD6280630C0000030C10016 :1001A0000630C4000030C5001620E128861FE12873 :1001B0000730C0000030C1000730C4000030C50067 :1001C000162086100615061EEF280830C0000030E5 :1001D000C1000830C4000030C50016201229861E58 :1001E000FB280930C0000030C1000930C4000030D5 :1001F000C50016201229061F07290A30C00000304A :10020000C1000A30C4000030C50016201229861F24 :1002100012290B30C0000030C1000B30C400003088 :10022000C500162006118615061E20290C30C000B8 :100230000030C1000C30C4000030C5001620432936 :10024000861E2C290D30C0000030C1000D30C400C6 :100250000030C50016204329061F38290E30C00083 :100260000030C1000E30C4000030C5001620432904 :10027000861F43290F30C0000030C1000F30C4007A :0C0280000030C500162086118428452996 :02400E006A2125 :00000001FF